:040000000C94AC00B0
:04003C000C94EF0031
:14008C00010001004F024F02460246024F024F025E024F02D9
:1400A0004F025E025E0269024F024F02460246024F024F02FC
:1400B4005E024F025E0269025E0276020000000000000000E4
:1400C800000000000000000000000000000000000000000024
:1400DC00000000000000000000000000000000000000000010
:1400F00000000000DC05DC05DC05DC05DC05DC05B80BDC0512
:14010400DC05DC05DC057017DC05DC05DC05DC05DC05DC0577
:14011800B80BDC05DC05DC05DC057017000000000000000005
:14012C000000000000000000000000000000000000000000BF
:140140000000000000000000000000000000000000000000AB
:1401540000000000CFEFD0E1CDBFDEBFCE51D0400AEA088351
:140168000024ECECF1E011E0EC3CF10711F00192FBCF0083C4
:14017C00ECE8F0E0A0E0B1E011E000E00BBFE835F10721F0F9
:14019000C89531960D92F9CF0E940702FFCF22242BBA8FEFAE
:1401A4008ABB28BA87BB25BA84BB22BA81BB23B822B8209241
:1401B800620020926100209265008FE18093640008952224DD
:1401CC0023BE20BE84E682BF8CE981BF8DE183BF08952A92F7
:1401E0003A928A939A932FB62A9280E890E022B23324282603
:1401F400392622BA29902FBE999189913990299018950E9401
:140208000E02442755270AC0662777276F5F7F4F6835E2E0FB
:14021C007E07D4F34F5F5F4F401751079CF30C941302F894A7
:1402300022242CBE20926D00B2DFC7DF222425BE20926A00EF
:140244002ABE29BE82E087BF20927D007894089581E090E086
:14025800909303018093020101BF089582E090E090930301FF
:14026C0080930201222421BE04E610E0C6CF4A935A9344279F
:14028000552784E091E0FA01EE0FFF1FE80FF91F00811181E1
:14029400DFDF88E691E0FA01EE0FFF1FE80FF91F0081118181
:1402A800AEDFDCDF4F5F5F4F4E31E0E05E072CF35991499117
:1402BC0008950FE412E0C8DF0CED15E09EDFCCDF0FE412E00A
:1402D000C1DF0CED15E097DFC5DF06E412E0BADF0CED15E00F
:1402E40090DFBEDF06E412E0B3DF0CED15E089DFB7DF0FE4AD
:1402F80012E0ACDF0CED15E082DFB0DF0FE412E0A5DF0CED35
:14030C0015E07BDFA9DF0EE512E09EDF08EB1BE074DFA2DFE2
:140320000FE412E097DF0CED15E06DDF9BDF0FE412E090DF66
:140334000CED15E066DF94DF0EE512E089DF0CED15E05FDF96
:140348008DDF0EE512E082DF0CED15E058DF86DF09E612E084
:14035C007BDF00E717E151DF7FDF0FE412E074DF0CED15E0A0
:140370004ADF78DF0FE412E06DDF0CED15E043DF71DF06E47E
:1403840012E066DF0CED15E03CDF6ADF06E412E05FDF0CEDC9
:1403980015E035DF63DF0FE412E058DF0CED15E02EDF5CDFB4
:1403AC000FE412E051DF0CED15E027DF55DF0EE512E04ADFF2
:1403C00008EB1BE020DF4EDF0FE412E043DF0CED15E019DF22
:1403D40047DF0EE512E03CDF0CED15E012DF40DF09E612E010
:1403E80035DF0CED15E00BDF39DF0EE512E02EDF0CED15E01D
:1403FC0004DF32DF06E712E027DF00E717E1FDDE2BCF0FDF72
:1404100003C033DF54DFFDCFFECF08957A936A935A934A93C6
:0C042400089549915991699179910895CA
:00000001FF
