:040000000C947100EB
:040038000C9414010F
:040040000C94CE004E
:14008C0040C4C4CA95D03BD317D87EDC00E100E362E56400A3
:1400A0000000000000000000000414242404244252440414D4
:1400B400242404244252445844245844241414041424444880
:1400C800545444547474744444241408142204244444441482
:0500DC0022322414048F
:1400E200CFEFD0E1CDBFDEBFCE51D0400AEA08830024E5E5D6
:1400F600F1E011E0E535F10711F00192FBCF0083ECE8F0E09D
:14010A00A0E0B1E010E000E00BBFE13EF10721F0C8953196EA
:14011E000D92F9CF0E94F201FFCF22242BBA2ABA28BA27BA31
:1401320025BA24BA22BA21BA23B822B8209262002092610069
:1401460020926500209264000895222423BE20BE8EEC82BF1B
:14015A0082E381BF83E083BF089522242EBC84EC8DBD80E45C
:14016E008CBD8BE38BBD80EC8ABD8BE389BD80EC88BD8BE3F8
:140182008093790080EC809378008BE387BD80EC86BD2FBC9A
:1401960081E08EBD08952A923A928A939A93AA93EA932FB69B
:1401AA002A928EEC82BF80911501909116010196909316019A
:1401BE008093150180E197E22090150130901601821593055E
:1401D20034F422243324309216012092150180911701909169
:1401E6001801019690931801809317018091190190911A0187
:1401FA008130E0E09E0751F422243324309218012092170154
:14020E0030921A012092190129902FBEE991A9919991899195
:140222003990299018951A922A928A939A93EA93FA931FB608
:140236001A9280E091E0E0911201FF27EE0FFF1FE80FF91F63
:14024A0080819181892F992790708DBD80E091E0E091120176
:14025E00FF27EE0FFF1FE80FF91F8081918190708CBD8091CF
:140272001201893038F480E12090650028262092650005C0E0
:14028600809165008F7E8093650019901FBEF991E9919991B5
:14029A008991299019901895F89422242CBE20926D003DDF30
:1402AE005ADF4FDF222425BE20926A002ABE29BE85E487BF12
:1402C20020927D00789408950E940702442737C08DE191E064
:1402D600E42FFF27E80FF91F808182958F708F708093120190
:1402EA008DE191E0E42FFF27E80FF91F208133272F7030709F
:1402FE0008EE13E00E94F701580181E090E090931A018093EE
:1403120019018091190190911A018130E0E09E07C1F32090DC
:140326001701309018012A143B04CCF3B69B04C084E6809304
:14033A00120104C04395483308F4C6CF84E6809312010C94C4
:14034E000C0233C0B79B04C02224209212012DC0B69B04C077
:1403620081E08093120127C0B59B04C082E08093120121C09C
:14037600B49B04C083E0809312011BC0B39B04C084E0809373
:14038A00120115C0B29B04C085E0809312010FC0B19B04C0FC
:14039E0086E08093120109C0B09B04C087E08093120103C097
:1403B20084E680931201CCCF08950E941102442755270AC009
:1403C600662777276F5F7F4F6835E2E07E07D4F34F5F5F4F55
:1403DA00401751079CF30C9416025EDF01C070DFFECF089562
:1403EE000A921A928A939A93029FC001129F900D039F900D7A
:140402008C01999189911990099008955A934A93BA92AA92E4
:140416000895A990B9904991599108957A936A935A934A937E
:0C042A00089549915991699179910895C4
:00000001FF
